:020000040800F2
:10000000102700204501000865310008673100080D
:100010006B3100086F3100087331000800000000E8
:100020000000000000000000000000007731000820
:1000300079310008000000007B3100087D310008A4
:100040005F0100085F0100085F0100085F01000810
:100050005F0100085F0100085F0100085F01000800
:100060005F0100085F0100085F0100085F010008F0
:100070005F0100085F010008594700086147000858
:100080005F0100085F0100085F0100085F010008D0
:100090005F0100085F0100085F010008853100086A
:1000A0005F0100085F0100085F0100085F010008B0
:1000B0005F010008873100085F0100085F01000848
:1000C0005F01000869470008714700085F010008E8
:1000D0005F0100085F0100085F0100085F01000880
:1000E0005F0100085F0100085F0100085F01000870
:1000F0005F0100085F0100085F0100085F01000860
:100100005F0100085F0100085F0100085F0100084F
:100110005F0100085F0100085F0100085F0100083F
:100120005F0100085F0100085F0100085F0100082F
:10013000DFF80CD007F090FD0048004713280008B6
:10014000102700200648804706480047FEE7FEE7E4
:10015000FEE7FEE7FEE7FEE7FEE7FEE7FEE7FEE777
:1001600047020008310100080CB500200190009002
:100170006C48006840F480306A49086000BF6948F4
:10018000006800F4003000900198401C0190009835
:1001900018B90198B0F5A06FF1D16248006800F479
:1001A000003010B10120009001E000200090009884
:1001B000012843D15C48006840F010005A490860AB
:1001C0000846006820F0030008600846006840F018
:1001D0000200086053484068524948600846406839
:1001E00048600846406840F48060486008464068BF
:1001F00020F47C1048600846406840F4E8104860ED
:100200000846006840F08070086000BF45480068FC
:1002100000F000700028F9D04248406820F0030048
:10022000404948600846406840F00200486000BF0E
:100230003C48406800F00C000828F9D10CBD10B50E
:10024000FFF792FF10BD10B53648006840F001007E
:1002500034490860084640683449084031494860DC
:1002600008460068324908402E4908600846006880
:1002700020F4802008600846406820F4FE004860B2
:100280004FF41F008860FFF7DAFF4FF00060294944
:10029000086010BD10B5002100200022214B5B68D2
:1002A00003F00C0121B1042906D0082928D107E068
:1002B000214B224C236027E01F4B204C236023E07E
:1002C000184B5B6803F47010164B5B6803F48032C4
:1002D000022303EB904022B9194B4343174C236090
:1002E0000DE0104B5B6803F4003323B1144B434320
:1002F000124C236003E0104B4343104C236003E097
:100300000D4B0E4C236000BF00BF064B5B68C3F370
:1003100003130C4CE15C094B1B68CB40074C23607A
:1003200010BD000000100240002002400000FFF855
:10033000FFFFF6FE08ED00E000127A00000000204A
:1003400000093D000400002031490143314A116099
:10035000704770B5002100230F22C47804B32D4CE0
:10036000246804F4E064C4F5E064210AC1F10403E4
:10037000CA40447804FA03F1847814402143090107
:10038000254C0678A155047804F01F050124AC40E3
:1003900005786D11AD0005F1E025C5F8004109E0D3
:1003A000047804F01F050124AC401C4D067876113A
:1003B00045F8264070BD1A4A0A400243154B1B1FE0
:1003C0001A60704739B1134A121D12680243114B6B
:1003D0001B1D1A6006E00F4A121D126882430D4B66
:1003E0001B1D1A607047042808D14FF0E0210969ED
:1003F00041F004014FF0E022116107E04FF0E021ED
:10040000096921F004014FF0E022116170470000FA
:100410000000FA050CED00E000E400E080E100E0FF
:1004200080FFFF1F01684FF6FE721140016000213E
:10043000016041608160C1608D49884208D18C496A
:100440000839496841F00F01894A083A51608AE049
:1004500087491431884208D185490839496841F0F3
:10046000F001834A083A51607DE081492831884291
:1004700008D17F490839496841F470617C4A083ADB
:10048000516070E07A493C31884208D17849083996
:10049000496841F47041764A083A516063E0744912
:1004A0005031884208D172490839496841F47021B5
:1004B0006F4A083A516056E06D496431884208D16C
:1004C0006B490839496841F47001694A083A51603A
:1004D00049E067497831884208D165490839496857
:1004E00041F07061624A083A51603CE061498842DB
:1004F00006D1011F096841F00F01021F116032E0AF
:100500005C491431884208D15A49091F096841F0F1
:10051000F001584A121F116025E0564928318842DF
:1005200008D15449091F096841F47061514A121FEA
:10053000116018E04F493C31884208D14D49091FEC
:10054000096841F470414B4A121F11600BE04949A0
:100550005031884207D14749091F096841F4702189
:10056000444A121F1160704710B50022026847F616
:10057000F0739A430C6A8B6823430C6923434C69DC
:1005800023438C692343CC6923434C6A23438C6AFD
:1005900023431A430260CB6843600B6883604B6857
:1005A000C36010BD0021016041608160C1600161D4
:1005B00041618161C161016241628162704721B123
:1005C000026842F00102026004E002684FF6FE7326
:1005D0001A40026070471AB103680B43036002E0DF
:1005E00003688B4303607047416070470146486869
:1005F00080B2704701460020002201F080531BB1F9
:100600001C4B083B1A6802E0194B083B1A6802EAC7
:1006100001030BB1012000E00020704700F0805181
:1006200019B11449091F086002E0114908394860EE
:10063000704701460020002201F080531BB10D4B92
:10064000083B1A6802E00A4B083B1A6802EA0103F9
:100650000BB1012000E00020704700F0805119B17B
:100660000449091F086002E00149083948607047E1
:10067000080002400804024010B50446CC488442F9
:1006800008D10121042000F04FFD0021042000F0DA
:100690004BFD46E0C748844208D10121082000F004
:1006A00043FD0021082000F03FFD3AE0C2488442AB
:1006B00008D10121102000F037FD0021102000F0AA
:1006C00033FD2EE0BD48844208D10121202000F0F6
:1006D0002BFD0021202000F027FD22E0B8488442B5
:1006E00008D10121402000F01FFD0021402000F032
:1006F0001BFD16E0B348844208D10121802000F0A0
:1007000013FD0021802000F00FFD0AE0AE48844276
:1007100007D10121801500F007FD0021A01500F090
:1007200003FD10BD10B50121084600F0FDFC0021BD
:10073000012000F0F9FC10BD2DE9F0410246002532
:100740000026002000230024002791F803C00CF0AD
:100750000F0591F803C00CF0100CBCF1000F03D092
:1007600091F802C04CEA050591F800C0BCF1000FF9
:1007700031D0146800202BE04FF0010C0CFA00F38C
:10078000B1F800C00CEA03069E4220D183004FF06E
:100790000F0C0CFA03F7BC4305FA03FC4CEA040403
:1007A00091F803C0BCF1280F06D14FF0010C0CFAF0
:1007B00000FCC2F814C00AE091F803C0BCF1480F75
:1007C00005D14FF0010C0CFA00FCC2F810C0401C1F
:1007D0000828D1D31460B1F800C0BCF1FF0F34DD9C
:1007E000546800202EE000F1080C4FF0010808FAD0
:1007F0000CF3B1F800C00CEA03069E4221D183003D
:100800004FF00F0C0CFA03F7BC4305FA03FC4CEA5B
:10081000040491F803C0BCF1280F05D100F1080CC5
:1008200008FA0CF8C2F8148091F803C0BCF1480F24
:1008300007D100F1080C4FF0010808FA0CF8C2F8D3
:100840001080401C0828CED35460BDE8F0814FF6DC
:10085000FF710180022181700421C170704702463E
:10086000002093680B400BB1012000E0002070478E
:100870000146886880B2704702460020D3680B406A
:100880000BB1012000E0002070470146C86880B22B
:10089000704701617047416170470AB1016100E032
:1008A00041617047C16070474FF480320A438261F2
:1008B0008161826182698269704702460020434BF0
:1008C00018684FF68073184040EA021008433F4B07
:1008D000186070473E49C8617047F0B50A4600236A
:1008E00000240021002500F00046B6F1004F02D19F
:1008F000364EF16901E0354E7168C0F3034583B2AD
:1009000000F44016B6F5401F08D121F070612F4E5B
:10091000766826F070662D4F7E6012E000F4801637
:10092000B6F5801F06D1032606FA05F4A14341F06F
:10093000706106E0460D360103FA06F6B14341F058
:10094000706122B1460D360103FA06F6314300F01C
:100950000046B6F1004F02D11C4EF16101E01B4E82
:100960007160F0BD30B500228B071C0F0F2303FA16
:1009700004F2164B08338C1053F824309343134C75
:1009800008348D1044F8253023468C1053F8243059
:100990008C07240F00FA04F423430C4C08348D1008
:1009A00044F8253030BD0A49DC310860704700004A
:1009B00000080140000C01400010014000140140FB
:1009C00000180140001C01400020014000000140CF
:1009D0000000204210B50446F748844209D10121A5
:1009E000480500F0AEFB00214FF4001000F0A9FB19
:1009F00008E00121880500F0A4FB00214FF48000ED
:100A000000F09FFB10BD2DE9F04385B004460D4674
:100A10000026B1460427DFF8A483A6884FF6C070ED
:100A20000640684600F0F9FADDF80880E448B8FBB3
:100A3000F0F01FFA80F946EA0906A68020884FF6F2
:100A4000FE71084020800026DE49286888420CD8C4
:100A500028684000B8FBF0F087B2042F00DA0427C2
:100A60003E4309F10100208427E0E8884BF6FF713E
:100A7000884206D1286800EB4000B8FBF0F087B24E
:100A800009E0286800EBC00101EB0010B8FBF0F0B2
:100A900087B247F48047C7F30B0008B947F0010756
:100AA00047F4004006434FF4967009FB00F04FF402
:100AB0007A7190FBF1F0401C2084A683208840F0DE
:100AC0000100208026884FF6F5300640A888698905
:100AD000084306432680A88929890843208105B058
:100AE000BDE8F08341F288310160002181804BF63E
:100AF000FF71C1800021018141814FF480418181DA
:100B0000704721B1028842F00102028004E00288AD
:100B10004FF6FE731A400280704721B1828842F47A
:100B20000062828004E082884FF2FF731A40828064
:100B3000704721B1828842F48052828004E082882A
:100B40004EF6FF731A408280704721B1028842F44A
:100B50008072028004E002884FF6FF631A40028030
:100B6000704721B1028842F40072028004E00288DA
:100B70004FF6FF531A400280704721B1028842F4B9
:100B80008062028004E002884FF6FF331A40028040
:100B900070470A46002181894FF60173194002F01F
:100BA000FE0319438181704721B1828942F001021D
:100BB000828104E082894FF6FE731A408281704779
:100BC00021B1028842F04002028004E002884FF620
:100BD000BF731A40028070471AB183880B43838029
:100BE00002E083888B43838070470182704701460F
:100BF000088AC0B2704712B141F0010102E04FF61D
:100C0000FE7319400182704708B50246002000902B
:100C100000920098084400900098008808BD21B117
:100C2000028842F40042028003E00288C2F30E020E
:100C300002807047B1F5006F04D1028842F400626F
:100C4000028004E002884FF2FF731A40028070476E
:100C5000B1F5005F04D1028842F40052028004E042
:100C600002884DF6FF731A400280704721B1028856
:100C700042F48052028004E002884EF6FF731A406C
:100C800002807047B1F5006F04D1028842F400621F
:100C9000028004E002884FF2FF731A40028070471E
:100CA00021B1028842F02002028004E002884FF65F
:100CB000DF731A40028070470146088B00127047AC
:100CC00021B1028842F01002028004E002884FF64F
:100CD000EF731A400280704721B9028842F0800207
:100CE000028004E002884FF67F731A40028070474A
:100CF000B1F5804F05D0828B4BF6FF731A4082838B
:100D000003E0828B42F480428283704770B50246D2
:100D10000024002500230020958A138B1B0445EA3C
:100D2000030626F07F4404EA01068E4201D1012029
:100D300000E0002070BD10B5014600200023002215
:100D40008B8A0A8B120443EA020424F07F4010BD10
:100D50000CB50246002000230193009300920B0F74
:100D6000019321F07F41019B1BB1009B1433009341
:100D700003E0090C009B18330093009B1B680B4099
:100D80000BB1012000E000200CBD002221F07F42C9
:100D9000D3438382704730B50246002000239488F5
:100DA00001F0E06504EA154321F07F41948A0C408C
:100DB00054B14BB1012008E00054004000127A0009
:100DC00040420F00A0860100002030BD002221F02B
:100DD0007F42D343838270470E49086070470D49B4
:100DE000486070470B49886070474AF6AA20094955
:100DF000086070474CF6CC400649086070470146D1
:100E00000020044AD2680A400AB1012000E0002014
:100E10007047000000300040DF48006840F00100EB
:100E2000DD49086008464068DC490840DA49486006
:100E300008460068DA490840D74908600846006853
:100E400020F4802008600846406820F4FE004860D6
:100E50004FF41F0088607047CF49096821F4803142
:100E6000CD4A11601146096821F480211160B0F566
:100E7000803F03D0B0F5802F0ED106E0C649096847
:100E800041F48031C44A116007E0C349096841F464
:100E9000A021C14A116000E000BF00BF704710B53B
:100EA00001460022002300204A11012A02D1BA4C37
:100EB000236806E0022A02D1B74C236A01E0B64C4F
:100EC000636A01F01F02012494401C400CB1012010
:100ED00000E0002010BD38B500200090002400255F
:100EE00000BF3120FFF7DBFF05460098401C009053
:100EF0000098B0F5A06F01D0002DF2D03120FFF79F
:100F0000CEFF08B1012400E00024204638BD014690
:100F10000020A14A106820F0F80040EAC1001060EB
:100F20007047A04908607047024600209A4B5868F5
:100F300020F47C1042EA01031843974B5860704735
:100F400098490866704701460020934A506820F08F
:100F500003000843506070478F48406800F00C0061
:100F60007047014600208C4A506820F0F00008438A
:100F70005060704701460020874A506820F4E060C6
:100F800008435060704701460020834A506820F4AF
:100F9000605040EAC1005060704729B17E4A527AE1
:100FA00002437D4B5A7204E07B4A527A82437A4B69
:100FB0005A7270477B49D83108607047014600205B
:100FC000754A506820F44040084350607047002143
:100FD000714A20321170704A82F82010012802D024
:100FE00004280AD104E001216B4A2032117005E087
:100FF0000521694A2032117000E000BF00BF704730
:101000006949086070476449096A0143624A11628C
:101010007047654944390860704730B500210022A7
:10102000002400235C4D6D6805F00C0121B10429FA
:1010300005D0082923D105E05C4D056022E05B4D19
:1010400005601FE0544D6D6805F47012524D6D68D7
:1010500005F48034022505EB92421CB9544D5543EA
:1010600005600BE04C4D6D6805F400351DB1504D29
:101070005543056002E04D4D5543056002E04B4D80
:10108000056000BF00BF444D6D6805F0F00109091F
:10109000484D6B5C0568DD4045603F4D6D6805F46B
:1010A000E061090A434D6B5C4568DD4085603A4D5F
:1010B0006D6805F46051C90A3E4D6B5C4568DD40C2
:1010C000C560354D6D6805F44041890B3A4D6B5C48
:1010D000C568B5FBF3F5056130BD29B12E4A5269EB
:1010E00002432D4B5A6104E02B4A526982432A4B3A
:1010F0005A61704729B1284A92690243264B9A6186
:1011000004E0254A92698243234B9A61704729B1D2
:10111000214AD2690243204BDA6104E01E4AD269B7
:1011200082431D4BDA61704729B11B4AD2680243E2
:10113000194BDA6004E0184AD2688243164BDA6031
:10114000704729B1144A12690243134B1A6104E033
:10115000114A12698243104B1A6170471249403993
:10116000086070470F49C86470470B49C8717047E1
:101170000948406A40F0807007494862704701465C
:101180000020054A92680A400AB1012000E00020D0
:101190007047014988727047001002400000FFF854
:1011A000FFFFF6FE000042428004424200127A0035
:1011B00000093D00140000202400002010B5044662
:1011C000BE48844208D101218014FFF7ADFF002101
:1011D000A014FFF7A9FF16E0B948844208D1012105
:1011E0000014FFF7AEFF00212014FFF7AAFF0AE06A
:1011F000B448844207D10121C013FFF7A2FF0021A8
:10120000E013FFF79EFF10BD10B50022028802F424
:1012100041520B884C8823438C882343CC8823433A
:101220000C8923434C8923438C892343CC89234352
:101230001A430280838B4FF2FF74234083830B8A0F
:10124000038210BD2DE9F04F85B005460C464FF0E6
:10125000000902274FF000084FF0010B0026B246AC
:10126000A88B4FF240010840A88302202884B5F8DB
:101270001C90A068022801D100BF38E0A08810B9F6
:101280004FF0010B01E04FF0020B8D48854200D179
:1012900000E000BF6846FFF7C0FEDDF800A0E08870
:1012A000B0F5007F0AD14FEA1A2000EB8000400021
:1012B000A168B0FBF1F0401D86B20BE04FEA4B1085
:1012C000BAFBF0F000EB80004000A168B0FBF1F049
:1012D000401D86B20A20B6FBF0F606F00108A6EB28
:1012E0000800C0F34F074FF6FF7000EA0828022FEE
:1012F00001DBFF2F02DD02274FF00008E08840EA03
:10130000080038432884A088A189084361880843DD
:101310002188084340F4006040EA0909A5F81C90C0
:1013200005B0BDE8F08F0021018041808180C1803F
:10133000018141818181C1810721018270470021A2
:10134000018041808180C1800221816000218181F2
:10135000704721B1028842F04002028004E0028816
:101360004FF6BF731A400280704721B1828B42F45E
:101370008062828304E0828B4FF6FF331A408283BF
:10138000704730B5002400230C110125A540ABB2F5
:101390001AB185881D43858002E085889D4385803C
:1013A00030BD1AB183880B43838002E083888B436E
:1013B00083807047818170470146888970474FF666
:1013C000FF62914204D0028842F48072028004E0FD
:1013D00002884FF6FF631A400280704721B182886D
:1013E00042F00402828004E082884FF6FB731A40C8
:1013F0008280704702884FF2FF731A400280028891
:101400000A4302807047018841F48051018070478F
:1014100021B1028842F40052028004E002884DF6B5
:10142000FF731A400280704702460020012901D054
:10143000108B00E0908A70470146088A7047B1F52A
:10144000804F04D1028842F48042028004E0028886
:101450004BF6FF731A400280704702460020138942
:101460000B400BB1012000E000207047CA4302810D
:101470007047F0B50246002000240023002501F04B
:101480000F070126BE40B4B20B1101269E40B3B235
:10149000968806EA03051689264016B10DB101208B
:1014A00000E00020F0BD10B5002201F00F04012380
:1014B000A3409AB2D343038110BD00000030014025
:1014C00000380040003C004010B50446FE4884420D
:1014D00008D10121C014FFF727FE0021E014FFF717
:1014E00023FEC4E0B4F1804F08D101210846FFF784
:1014F00028FE00210120FFF724FEB8E0F3488442D3
:1015000008D101210220FFF71CFE00210220FFF775
:1015100018FEACE0EE48844208D101210420FFF718
:1015200010FE00210420FFF70CFEA0E0E9488442F1
:1015300008D101210820FFF704FE00210820FFF751
:1015400000FE94E0E448844208D101211020FFF716
:10155000F8FD00211020FFF7F4FD88E0DF48844209
:1015600008D101212020FFF7ECFD00212020FFF70A
:10157000E8FD7CE0DA48844208D101214014FFF7FD
:10158000D3FD00216014FFF7CFFD70E0D548844201
:1015900009D10121C804FFF7C7FD00214FF4002045
:1015A000FFF7C2FD63E0D048844209D1012108055C
:1015B000FFF7BAFD00214FF48010FFF7B5FD56E0AC
:1015C000CA48844209D101214805FFF7ADFD002139
:1015D0004FF40010FFF7A8FD49E0C548844208D148
:1015E00001214020FFF7ADFD00214020FFF7A9FDBC
:1015F0003DE0C048844208D101218020FFF7A1FDD1
:1016000000218020FFF79DFD31E0BB48844208D1D6
:1016100001218015FFF795FD0021A015FFF791FD31
:1016200025E0B648844209D101210804FFF77CFD7A
:1016300000214FF48030FFF777FD18E0B048844276
:1016400009D101214804FFF76FFD00214FF400305C
:10165000FFF76AFD0BE0AB48844208D10121880402
:10166000FFF762FD00214FF48020FFF75DFD10BD04
:1016700000220288944B98420ED0994B98420BD08E
:10168000B0F1804F08D0914B984205D0904B9842D2
:1016900002D0904B984204D14FF68F731A404B887A
:1016A0001A438D4B984207D08C4B984204D04FF68A
:1016B000FF431A40CB881A4302808B8883850B88AE
:1016C0000385814B98420BD0854B984208D08B4BB9
:1016D000984205D08A4B984202D08A4B984201D159
:1016E0000B7A038601238382704770B500240022A1
:1016F0000023058C4FF6FE7635400584028C8388E6
:10170000048B4FF68F752C40B51E2C400D882C4352
:10171000751E2A400D892A434D882A436A4DA842E6
:101720000BD06F4DA84208D0744DA84205D0744D1F
:10173000A84202D0734DA84213D14FF6F7752A4044
:101740004D892A434FF6FB752A408D882A434FF670
:10175000FF652B404FF6FF552B408D892B43CD89DC
:101760002B4383800483CD888586028470BD70B549
:10177000002400220023058C4FF6EF7635400584C7
:10178000028C8388048B48F6FF752C404FF6FF458A
:101790002C400D884FF6FF7606EA05252C434FF6C0
:1017A000DF752A400D8906EA05152A434D8806EAA9
:1017B00005152A43444DA84202D0494DA8421DD1E7
:1017C0004FF67F752A404D894FF6FF7606EA0515DC
:1017D0002A434FF6BF752A408D8806EA05152A432D
:1017E0004FF6FF352B404FF2FF752B408D8906EAEF
:1017F00085052B43CD8906EA85052B438380048329
:10180000CD880587028470BD70B5002400220023B6
:10181000058C4FF6FF6635400584028C8388848BE7
:101820004FF68F752C404FF6FC752C400D882C43DD
:101830004FF6FF552A400D894FF6FF7606EA05253B
:101840002A434D8806EA05252A431F4DA84202D0A7
:10185000234DA8421DD14FF2FF752A404D894FF606
:10186000FF7606EA05252A434FF6FF352A408D8884
:1018700006EA05252A434EF6FF752B404DF6FF7507
:101880002B408D8906EA05152B43CD8906EA0515FF
:101890002B4383808483CD888587028470BD70B597
:1018A000002200230024058C4EF6FF763540058487
:1018B000038C8488828B48F6FF752A404FF6FF45DB
:1018C0002A400D8820E00000002C01400004004068
:1018D00000080040000C00400010004000140040D0
:1018E00000340140004C01400050014000540140D0
:1018F00000180040001C0040002000400040014053
:1019000000440140004801404FF6FF7606EA0525F5
:101910002A434DF6FF752B400D8906EA05352B430A
:101920004D8806EA05352B43FA4DA84202D0FA4D00
:10193000A84208D14BF6FF752C408D894FF6FF76F3
:1019400006EA85152C4384808283CD88A0F8405018
:10195000038470BD828B4FF2FF331A408283828BE7
:101960004FF6FF7303EA01231A4382837047F0B5F1
:101970000C461546002200210026078C4EF6FF7CFF
:1019800007EA0C070784828B018C4FF6FF7707EA82
:10199000043640F6FF473A404FF6FF7707EA05273F
:1019A0003A434FF6FF7707EA03373A43D94FB84235
:1019B0000ED0D94FB8420BD0B0F1804F08D0D74FDE
:1019C000B84205D0D64FB84202D0D64FB84206D161
:1019D0004DF6FF77394046F48057394305E047F626
:1019E000FF57394044F48057394382830184F0BD66
:1019F000828B4FF6F3731A408283828B0A43828371
:101A00007047F0B50C461546002200210026078CD1
:101A10004FF6FF6C07EA0C070784828B018C4FF6A8
:101A2000FF7707EA04264FF60C773A404FF6FF7728
:101A300007EA03172F433A43B64FB8420ED0B64FCA
:101A4000B8420BD0B0F1804F08D0B44FB84205D0A7
:101A5000B34FB84202D0B34FB84206D14FF6FF574A
:101A6000394046F48077394305E04FF2FF5739405B
:101A700044F48077394382830184F0BD028B4FF2B6
:101A8000FF331A400283028B4FF6FF7303EA0123F0
:101A90001A4302837047F0B50C4615460022002118
:101AA0000026078C4FF6EF7C07EA0C070784028BB1
:101AB000018C4FF6FF7707EA041640F6FF473A40DD
:101AC0004FF6FF7707EA03373A434FF6FF7707EA07
:101AD00005273A438F4FB8420ED08F4FB8420BD0F4
:101AE000B0F1804F08D08D4FB84205D08C4FB8422E
:101AF00002D08C4FB84206D14FF6DF77394046F01E
:101B00001007394305E04FF65F77394044F010077E
:101B1000394302830184F0BD028B4FF6F3731A4000
:101B20000283028B0A4302837047F0B50C461546C8
:101B300000220021068C4FF6FE773E400684028B81
:101B4000018C4FF60C7632407E1C06EA03162E43BB
:101B50003243704EB0420ED06F4EB0420BD0B0F157
:101B6000804F08D06D4EB04205D06D4EB04202D0CD
:101B70006C4EB04206D14FF6FD76314044F001067E
:101B8000314305E04FF6F576314044F0010631432C
:101B900002830184F0BD70B505460C465D48854260
:101BA0000ED05D4885420BD0B5F1804F08D05B4820
:101BB000854205D05A48854202D05A48854200D114
:101BC00000E000BF208850B92389A2886188284698
:101BD000FFF7ABFFE1882846FFF79EFF25E020884E
:101BE00004280AD12389A28861882846FFF753FF79
:101BF000E1882846FFF742FF17E0208808280AD12D
:101C00002389A28861882846FFF7FBFEE1882846E1
:101C1000FFF7EEFE09E02389A28861882846FFF7D6
:101C2000A6FEE1882846FFF795FE70BD2DE9F0413C
:101C300005460C4600260127608808B9022600E008
:101C40000026A088012801D1022700E00127208872
:101C5000A0B92389A28861882846FFF766FFE1883A
:101C60002846FFF759FF23893A4631462846FFF7B1
:101C700012FFE1882846FFF701FF13E02389A288BD
:101C800061882846FFF707FFE1882846FFF7F6FE40
:101C900023893A4631462846FFF747FFE188284620
:101CA000FFF73AFFBDE8F0810A884B881A438B881A
:101CB0001A43CB881A430B891A434B891A438B89E1
:101CC0001A43A0F8442070474FF6FF71818000212D
:101CD0000180C180418001727047002101804180F4
:101CE0008180C180018141818181C1817047002152
:101CF00001804180012181800021C18001817047E4
:101D00000021018041808180C180018141818181E8
:101D100070470000002C01400034014000040040E6
:101D200000080040000C004021B1028842F001028E
:101D3000028004E002884FF6FE731A40028070476A
:101D400031B1B0F8442042F40042A0F8442005E04C
:101D5000B0F84420C2F30E02A0F8442070471AB134
:101D600083890B43838102E083898B43838170479E
:101D70008182704741EA0203A0F8483070471AB1E7
:101D800083890B43838102E083898B43838170477E
:101D900001894FF6F8721140018170470A4600210F
:101DA00001894FF68F73194011430181704730B597
:101DB00004460D4629462046FFF7F0FF208940F0F3
:101DC0000700208130BD2DE9F04104460D4616463E
:101DD0001F46602D06D13B46012231462046FFF7C3
:101DE0005AFE05E03B46012231462046FFF79DFEA4
:101DF00029462046FFF7D2FF208940F007002081C6
:101E0000BDE8F08130B50C4600210189C9B24FF61A
:101E1000FF7505EA0325154325432943018130BD9C
:101E20002DE9F04105460E461746984600244346E4
:101E30003A4631462846FFF7E5FF2C894FF6F87001
:101E4000044044F007044FF68F70044044F07004DF
:101E50002C81BDE8F081F0B504460D4616461F46BC
:101E60003B46324629462046FFF7CCFF208940F406
:101E700080402081F0BD0185828270470A460021A2
:101E800001884FF68F731940114301807047F0B5F8
:101E90000C4615461E460021002200230189028BB4
:101EA000038C4FF6F877394021434FF6FC473A4010
:101EB00040F201173A434FF6DD773B404FF6FF778C
:101EC00007EA06172F433B43018102830384F0BDD9
:101ED0000A460021018B4FF68F731940114301838D
:101EE00070470A460021018B48F6FF7319404FF6F0
:101EF000FF7303EA02231943018370470A46002156
:101F0000818B4FF68F7319401143818370470A46C6
:101F10000021818B48F6FF7319404FF6FF7303EAE7
:101F2000022319438183704721B1028842F0800265
:101F3000028004E002884FF67F731A4002807047E7
:101F400021B1828842F00402828004E082884FF648
:101F5000FB731A408280704721B1828842F00802E8
:101F6000828004E082884FF6F7731A4082807047BF
:101F700021B1828842F00102828004E082884FF61B
:101F8000FE731A40828070470A460021018B4FF68B
:101F9000F77319401143018370470A460021018BF2
:101FA0004FF2FF7319404FF6FF7303EA0223194300
:101FB000018370470A460021818B4FF6F773194061
:101FC0001143818370470A460021818B4FF2FF73D2
:101FD00019404FF6FF7303EA0223194381837047C8
:101FE0000A460021018B4FF6FB7319401143018310
:101FF00070470A460021018B4FF6FF3319404FF618
:10200000FF7303EA02231943018370470A46002144
:10201000818B4FF6FB7319401143818370470A4649
:102020000021818B4FF6FF3319404FF6FF7303EA0F
:1020300002231943818370470A460021018B4FF622
:102040007F7319401143018370470A460021018BB9
:10205000C1F30E014FF6FF7303EA02231943018314
:1020600070470A460021818B4FF67F731940114358
:10207000818370470A460021818BC1F30E014FF620
:10208000FF7303EA02231943818370470A46002144
:10209000018C4FF6FD7319401143018470470A46C5
:1020A0000021018C4FF6F7731940114301847047EA
:1020B0000A460021018C4FF6DF7319404FF6FF737B
:1020C00003EA02131943018470470A460021018C78
:1020D0004FF67F7319404FF6FF7303EA021319435B
:1020E000018470470A460021018C4FF6FF531940C6
:1020F0004FF6FF7303EA02231943018470470A462F
:102100000021018C4FF2FF7319404FF6FF7303EA71
:1021100002231943018470470A460021018C4DF6C1
:10212000FF7319404FF6FF7303EA0233194301842A
:10213000704730B5002301248C40A3B2048C9C432B
:102140000484048C02FA01F5ADB22C43048430BD42
:1021500030B5002304248C40A3B2048C9C43048437
:10216000048C02FA01F5ADB22C43048430BD70B585
:102170000346002000241846183001258D40ACB2DB
:102180001D8CA5431D8409B1082909D100EB61000C
:10219000056825F0700505600568154305600EE0CB
:1021A0000D1FC5F34E052844056825F4E04505607C
:1021B00005684FF6FF7606EA02263543056070BDD6
:1021C00021B1028842F00202028004E002884FF648
:1021D000FD731A400280704721B1028842F0040268
:1021E000028004E002884FF6FB731A4002807047B9
:1021F00021B1828842F08002828004E082884FF61A
:102200007F731A408280704702884FF6F7731A4036
:10221000028002880A430280704782884FF68F73DB
:102220001A40828082880A438280704702894FF672
:10223000F8731A40028102890A43028170470289B9
:102240004FF67F731A40028102890A430281704768
:102250008184704781857047818670470187704708
:1022600081877047A0F84010704702884FF6FF43FF
:102270001A40028002880A43028070470146888E15
:1022800070470146088F70470146888F70470146A6
:10229000B1F8400070470146888C70470146088DB0
:1022A000704702460020138A0B400BB1012000E06A
:1022B00000207047CA430282704730B502460020B2
:1022C00000230024158A05EA0103958905EA010423
:1022D00013B10CB1012000E0002030BDCA430282DE
:1022E0007047000010B50446FB48844209D1012123
:1022F0008803FEF719FF00214FF48040FEF714FF1A
:1023000032E0F648844209D101214804FEF719FF62
:1023100000214FF40030FEF714FF25E0F04884421E
:1023200009D101218804FEF70CFF00214FF4802021
:10233000FEF707FF18E0EB48844209D10121C804E9
:10234000FEF7FFFE00214FF40020FEF7FAFE0BE03F
:10235000E548844208D101210805FEF7F2FE00217C
:102360004FF48010FEF7EDFE10BD2DE9F04786B06A
:1023700005460E460024A24600BFA1460027B089AC
:1023800000B100BF2F462C8A4CF6FF700440F08845
:1023900004432C82AC894EF6F3100440B088318996
:1023A0000843718908430443AC81AC8A4FF6FF406F
:1023B0000440B0890443AC8201A8FEF72EFEC64853
:1023C000874202D1DDF810A001E0DDF80CA0A88959
:1023D00000F4004040B10AEBCA0000EB0A1031687B
:1023E0004900B0FBF1F807E00AEBCA0000EB0A1065
:1023F00031688900B0FBF1F86420B8FBF0F004010B
:102400002009642101FB1089A88900F4004040B133
:10241000322000EBC900B0FBF1F000F007000443EC
:1024200008E0322000EB09106421B0FBF1F000F06D
:102430000F0004432C8106B0BDE8F0874FF416511D
:10244000016000218180C18001810C214181002136
:102450008181704710B502460020108A4FF2FF03B9
:1024600018400B884C8823438C882343CC88234313
:102470001843108210BD0021018041808180C180FD
:10248000704721B1828942F40052828104E082893E
:102490004DF6FF731A4082817047F0B50346002461
:1024A00000260025002040F66A17B94200D100BF7F
:1024B0001846C1F3421401F01F06012707FA06F57A
:1024C000012C01D10C3004E0022C01D1103000E0CD
:1024D00014301AB107682F43076002E00768AF4362
:1024E0000760F0BD1AB1838A0B43838202E0838ABE
:1024F0008B4383827047028A4FF6F0731A40028240
:10250000028A0A430282704782894FF2FF731A409F
:10251000828182890A438281704721B1828942F097
:102520000202828104E082894FF6FD731A408281A3
:102530007047028A4FF6DF731A400282028A0A430A
:102540000282704721B1028A42F48042028204E092
:10255000028A4BF6FF731A4002827047C1F30802E9
:102560008280704701468888C0F3080070478189DF
:1025700041F0010181817047028BD2B20283028B4C
:1025800042EA012202837047028B02F47F420283F7
:10259000028B0A430283704721B1828A42F02002F3
:1025A000828204E0828A4FF6DF731A40828270478B
:1025B00021B1828A42F01002828204E0828A4FF6C0
:1025C000EF731A408282704721B1828A42F008027A
:1025D000828204E0828A4FF6F7731A408282704743
:1025E00021B1828942F40042828103E08289C2F3F0
:1025F0000E028281704721B1828A42F40062828297
:1026000004E0828A4FF2FF731A4082827047828A06
:102610004FF6FB731A408282828A0A438282704795
:1026200021B1828A42F00202828204E0828A4FF65D
:10263000FD731A408282704702460020B1F5007F88
:1026400000D100BF13880B400BB1012000E0002037
:10265000704701F40072B2F5007F00D100BFCA4399
:102660000280704770B50246002400230025002038
:1026700040F66A16B14200D100BFC1F3421501F025
:102680001F03012606FA03F3012D02D19689334078
:1026900006E0022D02D1168A334001E0968A3340CB
:1026A0000C12012606FA04F41688344013B10CB15A
:1026B000012000E0002070BD10B50022002340F68C
:1026C0006A14A14200D100BF0A1201249440A3B2AF
:1026D000DC43048010BD000000380140004400408D
:1026E00000480040004C00400050004008B500F099
:1026F0005DFD01F0AAF900F0E5FEEEA005F0CEFACE
:1027000002F05AF812E0F64802F0C4F801280AD1A3
:10271000F348C0780090F248837842780178F1A0BD
:1027200005F0BCFA02E0FEA005F0B8FAEBE710B540
:1027300001F050FE25220021FE4801F000FD01F0CD
:1027400049FEFC480078632862D1FA488078FA494B
:102750000870F8484078F9490870F6480079F84957
:102760000870F448C078F7490870F248007AF649D2
:102770000870F048407A4870EE48807A8870ED48DA
:10278000C07AC870EB48007BF0490870E948407B8C
:102790004870E848807B8870E648C07BC870E54890
:1027A000007CEB490870E348407C4870E148807C3D
:1027B0008870E048C07CC870DE48007EE54908703B
:1027C000DC48407E4870DB48807E8870D948C07EF7
:1027D000C870D848007F0871D648407F4871D548F6
:1027E00090F82400DC490870D24890F82000D149C4
:1027F00091F8211040EA0120CE4991F8221040EAD8
:102800000140CC4991F8231040EA0160D3490860A7
:1028100010BD4FF0000BC8480478C84890F80090ED
:1028200000F0C4FC01F011F900F0D8FD01F052FAFB
:1028300001F077FC01228021C94800F0F7FD08B1C2
:10284000FFF775FFBB480078632863D06320B94960
:102850000870BA4800784870B74800788870B9485E
:102860000078C870B64800780871B74800780872D8
:10287000B54840784872B44880788872B248C078C9
:10288000C872B24800780873B04840784873AF48BF
:1028900080788873AD48C078C873AD4800780874F4
:1028A000AB4840784874AA4880788874A848C078B3
:1028B000C874A84800780876A64840784876A548A5
:1028C00080788876A348C078C876A24800790877CF
:1028D000A0484079487701F07DFD08220021954805
:1028E00001F05BFD01F076FD0822114691480830A9
:1028F00001F053FD01F06EFD082210218D481030CB
:1029000001F04BFD01F066FD0822182189481830BE
:1029100001F043FD01F050FF00F02EFE01F0AAF897
:1029200000209049087040F27121042001F086FBDC
:10293000FCE38D480078002870D0694801F0AAFFB8
:102940008246012862D1BBF1000F08D16449887822
:1029500005F028F8854908604FF0010B2CE0834909
:10296000086805F024F85E49897888420EDA7F49C4
:10297000086805F049F8074600227D4B04F06BFF1C
:10298000054605F06DF87949086015E07749086853
:1029900005F00DF85249897888420DDD73490868C1
:1029A00005F032F805460022714B04F0F5FF0746AA
:1029B00005F056F86D4908604949087804F0F2FFBF
:1029C0006C49086000206C490880674908706B49B1
:1029D00008706B480088B0F57A7F1FDD634908688E
:1029E000684905F063F819D260490868664905F03E
:1029F00053F813D25F490868002105F057F80DD845
:102A00006248007808B101F0BAF907E0BAF1020FA4
:102A100004D059480088401C57490880564800880F
:102A2000052804DD5A485349086050490860574852
:102A3000007830B14948006848BB474800786128B1
:102A400025D002214648FDF724FF20215148FDF7FB
:102A500022FF01214248FDF71CFF01214E48FDF7EE
:102A60001AFF4FF400513E48FDF713FF10214A486A
:102A7000FDF711FF4FF480714648FDF70CFF4FF44E
:102A800000614648FDF707FF0020454908704548AA
:102A9000007800280BD133480078002808D00020A7
:102AA00030490870404800784049087080E0AFE144
:102AB00027E100000D0A2A2A2AD2B0BBF049534F61
:102AC00020646874313120CEC2CAAAB6C8B4ABB88B
:102AD000D0C6F7CAB5D1E92A2A2A0D0A000000009B
:102AE000280000200D0AB6C1C8A14448543131B3B2
:102AF000C9B9A6210D0A0D0ACAAAB6C8CEAA25646C
:102B00002E256420A3A5524820A3ACCEC2B6C8CEC1
:102B1000AA2025642E2564A1E6200D0A00000000ED
:102B200052656164204448543131204552524F521D
:102B3000210D0A00180100203C0000203D0000206B
:102B40003E0000203F0000207B000020830000208A
:102B50007F000020040100206800002064000020A5
:102B6000001001406A0000205500002034000020C1
:102B70000000E03F300000205C000020BD0000208D
:102B800060000020000020C10000C8426300002057
:102B90000000C8C2000C01400018014000080140BC
:102BA0004000002041000020730000205A00002057
:102BB00000F04AFCFE480078FE490978884203D1BB
:102BC0000120FD49087002E00020FB490870F84828
:102BD000007850B1F9480088B0F5967F05DA4FF4D7
:102BE0000061F748FDF757FE0AE0F148007810B998
:102BF0000020F24908804FF40061F148FDF74BFED8
:102C0000F048007820B9F04890F80090EF48047838
:102C1000E9480078002874D1E5480078002870D091
:102C2000E3480078012806D0022818D0042835D0BF
:102C3000082867D190E0E6480088B0F57A7F02DC8A
:102C40000120E4490870DF480078401CDD49087025
:102C500008460078042801DD01200870D7E0002034
:102C6000D8490870DB49087040F2E930D84908803B
:102C7000D54880F80090D5480470D3480078D649EC
:102C80004870D248007888706320087001F0A2FB79
:102C900005220021D04801F080FBB8E0C948007847
:102CA000012806D0022818D003282CD0042850D19F
:102CB0003CE00A2099FBF0F100FB119199FBF0F048
:102CC000401C0A2290FBF2F302FB130000EB800091
:102CD00001EB400000F0FF093CE00A2099FBF0F115
:102CE00000FB1190401C0A2190FBF1F201FB120045
:102CF00099FBF1F101EB810100EB410000F0FF09CC
:102D000028E097E082E00A2094FBF0F100FB1141FB
:102D100094FBF0F0401C0A2290FBF2F302FB13003C
:102D200000EB800001EB4000C4B213E00A2094FBEA
:102D3000F0F100FB1140401C0A2190FBF1F201FB75
:102D4000120094FBF1F101EB810100EB4100C4B2F0
:102D500000E000BF00BF5AE09A480078012806D082
:102D600002281ED003282AD004284CD13FE0B9F114
:102D70000A0F02DA09F15A0010E00A2099FBF0F17B
:102D800000FB119199FBF0F0401E0A2290FBF2F338
:102D900002FB130000EB800001EB400000F0FF0994
:102DA00032E00A2099FBF0F100FB119010B909F113
:102DB000090001E0A9F1010000F0FF0924E00A2C5C
:102DC00002DA04F15A0010E00A2094FBF0F100FB53
:102DD000114194FBF0F0401E0A2290FBF2F302FB3B
:102DE000130000EB800001EB4000C4B20CE00A20AD
:102DF00094FBF0F100FB114010B904F1090000E070
:102E0000601EC4B200E000BF00BF00E000BF11E0E0
:102E10006E4804786C4890F800900020644908706F
:102E2000684908704FF400616548FDF734FD0020E3
:102E30006249088069480078612823D06848008882
:102E4000B0F5967F1EDD0020654908806548007852
:102E5000614981F8200063480088000A81F8210058
:102E600060480068000C81F822005E480068000E8F
:102E700081F8230001F0AEFA0422202156482030C8
:102E800001F08BFA0C20584948710871C87088709D
:102E90004870087051480078612803D05148006894
:102EA00000287DD051490868002104F0F5FD25D2A5
:102EB0004E4908684E4904F0F9FD1FD20A204A49DC
:102EC00008704A48006880F00045284604F088FDF4
:102ED000454948704548006880F0004645493046FD
:102EE00004F049FC054604F07BFDC0B20A2190FBCA
:102EF000F1F201FB12003C49887031E03B4908685F
:102F0000002104F0D3FD2BD8384908683A4904F071
:102F1000C3FD25D23549086804F062FDC0B20A211C
:102F200090FBF1F0304908703049086804F058FD12
:102F3000C0B20A2190FBF1F201FB12002A4948704D
:102F40002A4908682B4904F016FC054604F048FDA0
:102F500080B20A2190FBF1F201FB12002249887035
:102F600026490868002104F0A1FD79D823490868A2
:102F7000214904F09BFD06D82048006820490860DC
:102F800020481E4908601D49086804F029FDC0B2A8
:102F90000A2190FBF1F01449C8701849086800E054
:102FA00055E004F01DFDC0B20A2190FBF1F22BE0C8
:102FB000730000205A0000205B0000205600002013
:102FC00000080140590000203D0000203C00002086
:102FD000600000206200002018010020680000202E
:102FE0007000002064000020480100203400002010
:102FF000000020C1000020410000C8423000002035
:1030000038000020CDCCC74201FB120048490871AE
:1030100048490868484904F0AEFB054604F0E0FC66
:1030200080B20A2190FBF1F201FB12004049487185
:103030004049086804F0E8FC0546404A404B04F06B
:10304000F7FC0DD83F4800683A49086008E00020C6
:1030500037490870C8704FF400613B48FDF71BFC0E
:103060000A2099FBF0F0324988710A2099FBF0F1AF
:1030700000FB11902E49C8710A2094FBF0F00872F1
:103080000A2094FBF0F100FB1140294948722F48B7
:103090000078F8B12E480078E0B92E480078012871
:1030A00006D0022808D003280AD0042810D10BE04B
:1030B0000B201F4988710CE00B201D49C87108E0E6
:1030C0000B201B49087204E00B201949487200E0EC
:1030D00000BF00BF164800F055FD002208211E4821
:1030E00000F0A4F918B90120194908700FE0002078
:1030F0001749087001221103134800F097F918B915
:1031000001201649087002E000201449087000F000
:10311000E6FA00F099FA00F0A3FF11480078FA28C7
:1031200004DD00F01AFB00200D49087001E40000E6
:103130004801002030000020000020419A99999910
:1031400099F958403800002000080140580000203C
:1031500041000020590000200010014063000020C1
:103160005E000020704700BFFEE700BFFEE700BF23
:10317000FEE700BFFEE770477047704710B500F0EC
:1031800042F810BD704710B501210648FFF795F8C9
:1031900030B101210348FFF7A1F8034800F0F2FC29
:1031A00010BD0000000400404801002030B5724806
:1031B00000686422B0FBF2F1B1F1807F01D30120FD
:1031C0001DE021F07F40401E4FF0E022506150177B
:1031D0000F22002807DA13071D0E684B00F00F04BA
:1031E000241F1D5503E013071C0E654B1C5400BF24
:1031F00000204FF0E022906107201061002008B10C
:1032000000BFFEE730BD5F490878411C5D4A117080
:10321000032805DD01205C49087000201146087074
:103220005A4801880088401C584A1080322905DB22
:103230000020114608800120554908705548018832
:103240000088401C534A1080B1F57A7F05DB0020CE
:10325000114608800120504908705048007820B17C
:103260004F480078401C4E4908704E48007878B9A5
:103270004D480078401C4C49087008460078C82822
:1032800009DD01204949087000204749087002E023
:103290000020454908704648007868B145480188D3
:1032A0000088401C434A1080B1F5967F07DD40F24C
:1032B0002D101146088002E000203E4908803E485B
:1032C0000078B8B13D480078401C3C490870084679
:1032D000007832280ADD0020394908703748007824
:1032E00064280ADD00203549087006E001203449D1
:1032F000087002E00020314908703248007850B16F
:1033000030480078401C2F49087008460078FA2899
:1033100001DDFB2008702C480088401C80B22A493F
:10332000088064280FDB29480088401C2749088052
:103330002748006820B126480068401E24490860DC
:1033400000202149088023480088B0F57A7F12DCEC
:1033500020480088401C1F4908801F48007808B199
:10336000002008801B480088B0F57A7F03DD40F21A
:10337000E9301849088070470000002018ED00E08F
:1033800000E400E06B0000206A00002074000020D0
:10339000780000207600002079000020BE00002088
:1033A000BD000020540000206C00002055000020CB
:1033B0007300002056000020590000206D000020FE
:1033C000580000205E0000206E00002070000020E9
:1033D00064000020600000206200002008B5012188
:1033E0003420FDF787FE4FF4E070ADF80000282090
:1033F0008DF8030069462E48FDF79EF94FF4805082
:10340000ADF8000069462B48FDF796F94FF480505F
:10341000ADF8000069462848FDF78EF90820ADF8A0
:10342000000069462248FDF787F908BD70B50546DA
:103430000E46144631462846FDF711FAA04201D146
:10344000002070BD0120FCE710B50024012211030B
:103450001848FFF7EBFF10B9601CC4B21AE0012254
:1034600011021348FFF7E2FF10B9A01CC4B211E02B
:10347000012240210E48FFF7D9FF10B9201DC4B228
:1034800008E0012280210A48FFF7D0FF10B904F1BB
:103490000800C4B209480078844202D10848047088
:1034A00002E00020064908700448047010BD0000C6
:1034B000001001400014014000080140720000208B
:1034C0007300002000B585B0012144F20400FDF72F
:1034D00011FE4FF40070ADF8100018208DF81300A5
:1034E00003208DF8120004A92148FDF725F94FF4B7
:1034F0008060ADF8100004208DF8130004A91C486A
:10350000FDF71AF94FF4E13000900020ADF8040007
:10351000ADF80600ADF80800ADF80C000C20ADF8D1
:103520000A0069461348FEF720FF01211148FEF703
:10353000A8FF05B000BD70B504460D46E1B20D48C8
:10354000FFF70CF800BF80210A48FFF775F8002844
:10355000F9D0204670BD10B5044600BF20210548B3
:10356000FFF76AF80028F9D00248FEF7FBFF10BD0C
:10357000000801400038014000B587B0012141F248
:103580000400FDF7B7FDE020ADF8040001208DF840
:10359000060018208DF8070001A92948FDF7CCF88E
:1035A0001020ADF8040001208DF8060010208DF8E1
:1035B000070001A92248FDF7BFF810212048FDF7B8
:1035C00068F90020ADF808004FF48270ADF80A00E9
:1035D0000020ADF80C00ADF80E00ADF810004FF46F
:1035E0000070ADF812001020ADF814000020ADF806
:1035F00016000720ADF8180002A91248FDF704FED6
:1036000001211048FDF7A5FE07B000BD10B5044626
:1036100000BF02210B48FDF720FF0028F9D021460A
:103620000848FDF7C7FE00BF01210648FDF715FF5A
:103630000028F9D00348FDF7BFFEC0B210BD00005E
:10364000000801400030014010B50024AC4800786B
:10365000012843D10020AB490880A949087000BF68
:1036600017E000BF04EBC40000EB4000A64901EBEB
:10367000C000A6490860022001F0B2FB00BFA448C8
:103680000088002803DD02F04CFE03F0C9FF601C37
:10369000C4B20A2CE5DB002413E000BF9D4800EB18
:1036A00004109D490860052001F09AFB00BF98486E
:1036B0000088002803DD02F034FE03F0B1FF601C37
:1036C000C4B20A2CE9DB95480078012806D1002015
:1036D000934908809149087002F009FD10BD10B5AA
:1036E00090480078012830D100BF00208D49087033
:1036F00003F08EFF864908800846008800282BDDED
:103700004FF4006001F08FF98749898988420BD115
:10371000012001F065FB7E48008800281CDD02F0D6
:1037200000FE03F07DFF17E040F6060001F07BF994
:103730007D49898988420FD102F087FD744800884D
:10374000002809DD03F06CFF06E04FF48071774834
:10375000FDF785F800B9C8E710BD08B503F054FFC0
:1037600001F0AEF9724800787249087270484078EA
:1037700048726F48807888726D48C078C8726E4809
:10378000007808736C48407848736B488078887379
:103790006948C078C87369480078087467484078F9
:1037A00048746648807888746448C078C8746448EF
:1037B0000078087662484078487661488078887654
:1037C0005F48C078C8765E48007908775C484079E1
:1037D000487700BF564840785549097840EA0120AB
:1037E000000253494978524A127841EA022140EADC
:1037F000212080B2ADF800004D48C0784C4989784E
:1038000040EA012000024A49C978494A927841EACF
:10381000022140EA212080B2ADF8020000BF00BFC3
:10382000BDF8000047490880BDF80200488000BF8D
:1038300000BF424840784149097840EA012001022E
:103840003E4840783D4A127840EA022041EA202072
:1038500080B2ADF800003948C0783849897840EA2C
:10386000012001023548C078344A927840EA0220AB
:1038700041EA202080B2ADF8020000BF00BFBDF8D1
:10388000000031490880BDF80200488000BF00BF39
:10389000294840782849097840EA01200102264851
:1038A0004078254A127840EA022041EA202080B27E
:1038B000ADF800002048C0781F49897840EA01200F
:1038C00001021D48C0781C4A927840EA022041EA71
:1038D000202080B2ADF8020000BF00BFBDF800009C
:1038E0001A490880BDF80200488000BF4BF204006E
:1038F00001F02BFA4FF4A04001F027FA08BD0000B8
:10390000780000207400002058110020E4000020FE
:10391000DC000020DC190020E800002079000020F5
:10392000760000207A0000205401002000080140A9
:103930007B00002018010020830000207F00002071
:1039400004010020C2000020C6000020CA000020A0
:103950003EB5044601210820FDF7D9FB0120ADF852
:10396000040024B94EF2FF00ADF8000010E0012C75
:1039700004D140F63F30ADF8000009E0022C03D13D
:103980004720ADF8000003E041F61F40ADF800000D
:103990000020ADF806001020ADF80200694634485A
:1039A000FDF766FE3EBD70B5054640F271206843E6
:1039B0004FF6FF7101EA400401212D48FEF7B4F9EA
:1039C00021462B48FEF744FC03E02948FEF763FC40
:1039D0000446012CF9DC00212548FEF7A5F970BD4D
:1039E00070B5044604EB4400C0EBC4104FF6FF7101
:1039F00001EAC00501211E48FEF796F929461C4838
:103A0000FEF726FC03E01A48FEF745FC0546012DAB
:103A1000F9DC00211648FEF787F970BD70B5044641
:103A2000254601211248FEF77FF9A9B21048FEF79A
:103A30000FFC03E00E48FEF72EFC0546012DF9D8D9
:103A400000210B48FEF770F970BD10B50220FFF79A
:103A50007FFF10BD10B504462046FFF7C1FF10BD23
:103A600001B572B60098FFF7D9FF62B608BD000035
:103A7000000C004008B501213020FDF73BFB082079
:103A8000ADF8000002208DF8020010208DF8030030
:103A900069468E48FCF750FE0420ADF80000022075
:103AA0008DF8020010208DF8030069468748FCF766
:103AB00043FE4020ADF8000002208DF802001020E7
:103AC0008DF8030069468148FCF736FE08217F48DF
:103AD000FCF7E1FE04217D48FCF7DDFE40217B4838
:103AE000FCF7D9FE08BD70B504462546002616E051
:103AF00004217648FCF7CFFE05F0010020B1082133
:103B00007248FCF7C6FE03E008217048FCF7C3FECC
:103B100004216E48FCF7BDFE6D10701CC6B2082E65
:103B2000E6DB70BD70B504464FF6FF7000EA841501
:103B3000002616E004216548FCF7ADFE05F0010003
:103B400020B108216148FCF7A4FE03E008215F488A
:103B5000FCF7A1FE04215D48FCF79BFE6D10701C74
:103B600086B2102EE6DB70BD10B540215748FCF739
:103B700092FE40215548FCF78CFE40215348FCF74B
:103B80008AFE10BD10B504460120FFF7CBFF617A15
:103B90004F4A505CFFF7A7FFFFF7E6FF6420FFF7EF
:103BA0005FFF0220FFF7BEFF217A494A505CFFF712
:103BB0009AFFFFF7D9FF6420FFF752FF0420FFF7B9
:103BC000B1FFE179424A505CFFF78DFFFFF7CCFF70
:103BD0006420FFF745FF0820FFF7A4FFA1793C4AC6
:103BE000505CFFF780FFFFF7BFFF6420FFF738FF4F
:103BF0001020FFF797FF6179354A505CFFF773FF9C
:103C0000FFF7B2FF6420FFF72BFF2020FFF78AFFAA
:103C100021792F4A515C01F0FE00FFF764FFFFF7A6
:103C2000A3FF6420FFF71CFF4020FFF77BFFE17834
:103C3000274A505CFFF757FFFFF796FF6420FFF716
:103C40000FFF8020FFF76EFFA178214A505CFFF73D
:103C50004AFFFFF789FF6420FFF702FF4FF48070EF
:103C6000FFF760FF61781A4A515C01F0FE00FFF730
:103C70003AFFFFF779FF6420FFF7F2FE4FF4007080
:103C8000FFF750FF2178124A505CFFF72CFFFFF737
:103C90006BFF6420FFF7E4FE10BD10B540F2FE306C
:103CA000FFF740FF9F20FFF71EFFFFF75DFF642037
:103CB000FFF7D6FE0120FFF735FF0320FFF713FFC4
:103CC000FFF752FF6420FFF7CBFE10BD0014014048
:103CD0009100002008B501215C20FDF70BFA4FF49C
:103CE0009070ADF8000010208DF8030003208DF8CF
:103CF00002006946C148FCF71FFD1120ADF8000025
:103D00006946BF48FCF718FD4FF40060ADF80000AD
:103D10006946BC48FCF710FD4FF40050ADF80000B8
:103D20006946B948FCF708FD0320ADF80000694674
:103D3000B548FCF701FD0221B348FCF7AAFD20219C
:103D4000AE48FCF7A8FD0121AF48FCF7A2FD012118
:103D5000AB48FCF7A0FD4FF40051AB48FCF799FDD0
:103D60001021A748FCF797FD4FF48071A348FCF79A
:103D700092FD4FF40061A348FCF78DFD08BD2DE9CD
:103D8000F041A2480078612803D0A14800680028CB
:103D900079D0A048007803F005FE80469E4903F0E4
:103DA0001CFD05469D48007803F0FCFD80464FF061
:103DB0007E5103F0DAFC0646294603F0D6FC0446A1
:103DC0009749887803F0EEFD0746214603F064FE2C
:103DD0001CD202218C48FCF75EFD20218748FCF7AD
:103DE00058FD9048007840F001008E49087001218C
:103DF0008548FCF74EFD01218148FCF74CFD8948C0
:103E0000007820F004008749087059E08148007864
:103E100003F0C8FD8046804903F0DFFC05467F487B
:103E2000007803F0BFFD80464FF07E5103F04BFC5D
:103E30000646294603F047FC04467949887803F092
:103E4000B1FD0746214603F031FE1DD202216E4826
:103E5000FCF71FFD20216948FCF71DFD7148007823
:103E600020F001006F49087001216748FCF713FD3D
:103E700001216348FCF70DFD6A48007840F004001A
:103E8000684908701CE081E002215F48FCF701FDF1
:103E900020215A48FCF7FFFC6248007820F001001E
:103EA0006049087001215848FCF7F3FC012154488F
:103EB000FCF7F1FC5B48007820F0040059490870D9
:103EC0005948007803F06EFD05465848007803F025
:103ED00069FD0646294603F048FC0446544801683B
:103EE000204603F0E3FD02D20120524908705049F8
:103EF0000868514903F0DAFD02D800204D490870E6
:103F00004C48007838B34FF400513F48FCF7C3FCED
:103F100010213B48FCF7BDFC4248007840F002000D
:103F2000404908700846007820F0080008704FF4F7
:103F300080713248FCF7AFFC3C48007803F032FD5A
:103F400004463B480168204603F0A6FD54D20020F9
:103F50003849087050E04FF400512B48FCF799FCA9
:103F600010212748FCF797FC2E48007820F002002B
:103F70002C4908704FF480712048FCF78AFC2948CE
:103F8000007840F008002749087035E002211E48FB
:103F9000FCF77FFC20211948FCF77DFC21480078C4
:103FA00020F001001F49087001211748FCF771FC3F
:103FB00001211348FCF76FFC1A48007820F0040038
:103FC000184908704FF400510F48FCF762FC1021AB
:103FD0000B48FCF760FC1348007820F00200114900
:103FE00008704FF480710548FCF755FC0D480078C7
:103FF00020F008000B490870BDE8F081000C01407A
:104000000018014000080140001001406800002035
:10401000640000203F000020000020413D000020FF
:1040200028000020400000203E0000203C0000202E
:10403000300000209E0000200000B44270B505460C
:104040000C4645F25550FCF7C7FE2846FCF7C7FE64
:104050002046FCF7C7FEFCF7C8FEFCF7CBFE70BDA0
:1040600010B5FCF7C2FE10BD10B501210920FDF707
:1040700041F801218805FDF74AF810BD08B54FF455
:104080004060ADF8000003208DF802001C208DF880
:1040900003006946FE48FCF74FFB08BD08B54FF426
:1040A000C060FCF751F921208DF8000000208DF848
:1040B000020001208DF801008DF803006846FCF72E
:1040C00048F922208DF8000000208DF802008DF8BC
:1040D000010001208DF803006846FCF73AF9012140
:1040E0000846FCF7FAFF08BD1FB50020ADF8040034
:1040F0004BF6FF70ADF80600A020ADF808004FF4B5
:104100008060ADF80A000001ADF80C00E1480090B5
:104110000121E148FCF7F5FC6946DF48FCF773FC38
:104120001FBD10B5FFF7A0FFFFF7A8FFFFF7B6FF11
:10413000FFF7DAFF01210920FCF7DCFF10BD70B5A5
:104140008CB004460D461646D448007808B10CB031
:1041500070BD0120D1490870D148FCF763F9CE4801
:104160001030019002940020039004960590802066
:10417000069000200790089009904FF440500A9054
:1041800000200B9001A9C648FCF7EEF9012202219C
:10419000C348FCF720FA0F208DF8000000208DF8AE
:1041A00002008DF8010001208DF803006846FCF73D
:1041B000D0F80120BB4908700020BB490870A0203E
:1041C000BA490880BA4805800020BA490870012021
:1041D000B94908700121B048FCF7CFFC01224FF427
:1041E0004071AD48FCF7F8FCAB48008800F4007063
:1041F00030B1A94800884FF6FF510840A649088011
:104200000121A548FCF7A1FC00BFA0E770B58CB068
:1042100004460D461646A2481438FCF703F99E489A
:104220001030019002941020039004960020059015
:104230008020069000200790089009904FF440508D
:104240000A9000200B9001A995481438FCF78CF9CE
:104250000122022192481438FCF7BDF90E208DF896
:10426000000000208DF802008DF8010001208DF87B
:1042700003006846FCF76DF800208A4908708F49F2
:104280000870A02089490880894805800020894954
:10429000087001218048FCF770FC01224FF4E061B6
:1042A0007D48FCF799FC7C48008800F4007030B130
:1042B000794800884FF6FF5108407749088001216E
:1042C0007548FCF742FC0CB070BD2DE9F047824602
:1042D0000D4614464FF000080026B1460027284638
:1042E000E91705EB11710911A5EB011101F0FF09A7
:1042F000C9F11000C7B22046E11704EB1171C1F3F8
:104300000718E11704EB11710911A4EB0111CEB2EA
:1043100000206B490870B9F1000F13D1B8F1000FFC
:1043200007D1324629465046FFF770FF64480670B1
:104330001BE0102229465046FFF768FF1020604915
:10434000087012E0B8F1000F07D1324629465046F6
:10435000FFF75CFF5A48067007E037B13A46294636
:104360005046FFF753FF56480770BDE8F0875548A1
:104370000068534909780844524908605248008847
:104380004F490978084450490880504800684C4912
:104390000978401A4D490860704770B504460D46CB
:1043A00016463E48007800B170BD01203B490870B8
:1043B000414908704348046043480580434806600B
:1043C000008882B2404801883E480068FFF77DFFC0
:1043D00000BFE9E700BF384800780028FBD17047EC
:1043E00010B52D48FCF7A7FC04463949601A8C42E9
:1043F0004DD008DC6FF44030204448B101286DD026
:104400003F2843D17DE002287CD00428F9D1D1E0B7
:104410003048007810B902202749087021480078F8
:10442000012821D12348007868B92148008800F488
:10443000E0601E4A127842EAE010C1B2002216483B
:10444000FCF7D9FB1DE01A48008800F4E060174A29
:10445000127842EAE010C1B201220F48FCF7CBFB10
:104460000020144908700CE01148008800F4E06056
:104470000E4A127842EAE010C1B200220648FCF768
:10448000BAFB012291020448FCF7A6FB93E06BE023
:10449000000C0140400D030000580040BB0000200C
:1044A00058000240A0000020A8000020A200002028
:1044B000A4000020A7000020BC000020A9000020CC
:1044C000B0000020B4000020B8000020AC000020A4
:1044D00080000700A600002000E013E000224FF457
:1044E000C061A548FCF778FB0121A348FCF721FB3C
:1044F0000121A148FCF711FB0121A048FCF75FF85E
:1045000059E058E09E48007828B300209C49087084
:1045100000224FF4E0619848FCF75EFB01219648C9
:10452000FCF71FFBFFF723FF96480068002809DD12
:104530009448008882B29448018894480068FFF744
:10454000C4FE07E0012092490870002091490870DC
:10455000914908702FE0914801788748FCF745FBA6
:1045600001208F49087026E08E480078012811D17B
:10457000002281028048FCF72FFB00BF7E480088A4
:1045800000F40070B0F5007FF8D001217A48FCF704
:10459000DCFA10E000224FF4C0617748FCF71CFB06
:1045A00001217548FCF7B9FA012174481438FCF769
:1045B00006F800E000BF00BF10BD10B57A496E4894
:1045C000FCF7C6FBD8B16E48007820B101216A48DB
:1045D000FCF7BBFA0FE068481830008800F00100D3
:1045E00048B101216448FCF7BCFA0420694908700D
:1045F0000020694908706C495F48FCF7C6FB6B49AD
:104600005D48FCF7A5FB98B15B481830008800F0C6
:10461000010048B101215848FCF7A3FA04205D4984
:10462000087000205C49087060495348FCF7ADFBF6
:1046300010BD10B54FF40050FBF7DCFF002844D04C
:104640004D481830008800F00100D0B300214A48DE
:10465000FCF763FA002149481438FBF7B0FF00BFAC
:1046600045481430008800F004000028F8D00121EB
:104670004148FCF776FA00BF3F481830008800F048
:1046800002000028F8D10120494908700220414960
:104690000870012201023848FCF79EFA01203849CF
:1046A00008703548008800F4007030B13248008846
:1046B0004FF6FF5108403049088001212E48FCF791
:1046C00044FA4FF40050FBF7A9FF4FF48050FBF77A
:1046D00091FF18B14FF48050FBF7A0FF4FF48040DA
:1046E000FBF788FF18B14FF48040FBF797FF10BD30
:1046F00010B54FF40030FBF77DFFD0B11E481830E5
:10470000008800F0010080B100211B48FCF705FA89
:1047100001211948FCF725FA00201E4908700120E4
:104720002449087000201C4908704FF40030FBF742
:1047300075FF4FF48030FBF75DFF18B14FF4803008
:10474000FBF76CFF4FF48020FBF754FF18B14FF4D8
:104750008020FBF763FF10BD10B5FFF76AFF10BDA7
:1047600010B5FFF7C5FF10BD10B5FFF739FE10BD3E
:1047700010B5FFF722FF10BD00580040580002405E
:10478000A6000020AC000020B8000020B4000020EB
:10479000AA000020BC000020BB000020A4000020D4
:1047A000A7000020A000002000040010000100105D
:1047B000A9000020A800002008B501214020FCF736
:1047C00099FC2020ADF8000010208DF80300032094
:1047D0008DF8020069466348FBF7AEFF202161486F
:1047E000FCF757F808BD08B52020ADF800004820B8
:1047F0008DF8030069465B48FBF79EFF08BD08B5CE
:104800002020ADF8000010208DF8030003208DF863
:10481000020069465348FBF78FFF08BD70B50025BD
:104820000026002432E042F2107600BF3000A6F1EC
:1048300001018EB205D020214A48FCF710F800286B
:10484000F4D02820FFF70CF920214648FCF707F8A0
:10485000012814D142F2107600BF3000A6F1010108
:104860008EB205D020213F48FBF7F9FF0128F4D094
:10487000C4F1070101208840C0B2054304E0C4F13F
:104880000701012088408543601CC4B2082CCADBA4
:10489000284670BD70B50446FFF7B1FF20213148AE
:1048A000FBF7F9FF012030490870304800780228F2
:1048B00001DA022070BD20212A48FBF7EAFF1E2002
:1048C000FFF7CEF8FFF78FFF20212648FBF7C7FF41
:1048D000002841D142F2107500BF2800A5F1010166
:1048E0008DB205D020211F48FBF7B9FF0028F4D076
:1048F00042F2107500BF2800A5F101018DB205D06C
:1049000020211848FBF7ABFF0128F4D0FFF786FF02
:104910002070FFF783FF6070FFF780FFA070FFF744
:104920007DFFE070FFF77AFF2071FFF768FF20211D
:104930000C48FBF7AEFF00200B4908702078617827
:104940000844A1780844E17808442179884201D1DB
:104950000120AFE70020ADE700200349087000BF49
:10496000A8E7000000180140BE000020BD000020A4
:10497000F84908807047C2780A44F74BDA708278A9
:1049800002EB21229A7042785A7002781A701A4605
:104990009278B2EB212F0ADA1A465278521C5A70DA
:1049A0001A4652781AB91A461278521C1A70EA4AF4
:1049B000D278CBB29A4212DAE74A9278521CE64B8E
:1049C0009A701A46927852B91A465278521C5A7006
:1049D0001A4652781AB91A461278521C1A70704741
:1049E000F0B50B46144619461E19751E0BE04E789D
:1049F0000F7806EB0726B2B28618B0B2904201DA01
:104A0000461CB0B2891CA942F1D3A9420AD10E7842
:104A1000002707EB0626B2B28618B0B2904201DA40
:104A2000461CB0B2F0BD0146080240EA212080B227
:104A3000704770B504460D462A4621460020FFF710
:104A4000CFFF0646FFF7EFFF70BD10B51422C34934
:104A50000020FFF7C5FF044614B94FF6FF7010BDE4
:104A60002046FFF7E0FFFAE770B50446BB480E3872
:104A7000417C007C01EB0020143885B2281986B2F5
:104A80000822B6490C313046FFF7AAFF06462A46EF
:104A9000B24914313046FFF7A3FF064616B94FF668
:104AA000FF7070BD3046FFF7BEFFFAE710B5062075
:104AB000FFF7DAFF10BD10B51120FFF7D5FF10BDCD
:104AC0000020A74908700AE00020A649A44A1278ED
:104AD00021F81200A2480078401CA1490870A048A3
:104AE00000780A28F0DB00209D4908700FE00020C4
:104AF0009B49097801EBC10101EB41019A4A02EBA4
:104B0000C101487696480078401C95490870944841
:104B100000780A28EBDB4FF480609449088000207D
:104B20008F4908700BE0002091498D4A127801EB03
:104B3000021188808A480078401C8949087088489A
:104B400000780A28EFDB704730B504460D4600BFF9
:104B500086480088401C8549088008460088B0F5D2
:104B6000FA4F02DB4FF48050088000207C49087027
:104B700017E07B48007800EBC00000EB40007A496A
:104B800001EBC002507E38B178480088FFF74BFF38
:104B90009188884200D1DBE771480078401C704959
:104BA00008706F4800780A28E3DB002200206C4977
:104BB00008701AE06A48007800EBC00000EB400083
:104BC000694901EBC003587E08B91A4611E0587EC6
:104BD000072805D11AB1987E917E884200DD1A46D9
:104BE0005F480078401C5E4908705D4800780A28DC
:104BF000E0DB00BF0AB9002030BD022050765D48DE
:104C0000007810735B484178517381789173C17853
:104C1000D17340F6CA705082908201201082002029
:104C2000D076012090760320107600209075102019
:104C3000D0754E480088FFF7F6FE9080D58000BF03
:104C4000208810806088508000BF1046D4E730B5BF
:104C500003460C4600BF45480088401C4349088075
:104C600008460088B0F5FA4F02DB4FF48050088008
:104C700000203B49087011E03C480088FFF7D3FE54
:104C80003B49374D2D7801EB05118988884200D1C9
:104C9000E1E733480078401C31490870304800781B
:104CA0000A28E9DB002200202D49087011E0304875
:104CB0002B49097800EB0110808828B92C48284935
:104CC000097800EB011208E025480078401C2449CF
:104CD0000870234800780A28E9DB00BF0AB90020E1
:104CE00030BD2248007800022049098840EA21208E
:104CF0009080D48013B90020106005E000BF1888B0
:104D000010805888508000BF402010721046E7E79E
:104D10000021134A117012E01249114A127831F839
:104D20001210814206D100210E4A0D4B1B7822F849
:104D3000131070470A490978491C094A117008493B
:104D400009780A29E8DB00BFF3E70021044A117063
:104D500023E00000EC000020F400002062010020AD
:104D6000F8000020C819002058110020F20000208F
:104D7000DC190020EE000020FD49FE4A127831F8CF
:104D8000121029B9FA49FB4A127821F8120070472B
:104D9000F8490978491CF74A1170F64909780A2937
:104DA000EADB00BFF3E710B504462146F24800688D
:104DB0000830FFF7E0FDF1480078EF490968087214
:104DC000EE484178EC4800684172EC488178EA4846
:104DD00000688172E948C178E7480068C17210BD77
:104DE00070B50546E4480468042D00D1E5E2E448C6
:104DF000E4490860E4490860032D0FD1607E00F0AB
:104E00000F00032808D1208A30B90820DF49087034
:104E100002F0E5F900F0AABF01F028B9022D6ED129
:104E2000DB48C078401CC0B2D949C87078B9084680
:104E30008078401CC0B2887048B908464078401C51
:104E4000C0B2487018B908460078401C08700020AD
:104E5000D0490880D0490880607E072802D0607E53
:104E6000052808D1A07E401CA076A07E782862D1BB
:104E7000002060765FE0607E00285CD0208A0028F9
:104E80004ED0A17E481EA076002954D1E07E08288D
:104E900008D0607E022802D0607E012810D1E07E1A
:104EA00005280DD1002060768020B849087002F0F6
:104EB00096F91421B248363880F82F1001F02FB837
:104EC000E07E042801DD042000E0E07E0321814033
:104ED000A176E07E401CE076B048C08C401C81B2D8
:104EE000AE48C184607E00F00F00092823D2DFE8BD
:104EF00000F02205070D142215221600EEE31BE038
:104F000000219F48363880F82F10E8E304209F499D
:104F1000087002F064F900F06BBF00BF00BFF8E357
:104F2000607E00F00F00032805D108209749087023
:104F300002F055F96EE76FE7052D18D19848006823
:104F4000808898B100208C4908608D480C388D49C4
:104F500008608D49086000208F4908808D490880CD
:104F600008208A49087002F010F926E254E78B48BD
:104F70004088401C8949488081483638807B4528D4
:104F80000BD008460088401C08800846C088401C9A
:104F9000C88084A001F0C3FB3EE779483638417CE5
:104FA000007C01EB00207B490988884208DC7448BA
:104FB0003638417C007C01EB00207649088003E014
:104FC00082A001F0ACFB27E76D483638007D00F089
:104FD0003F0018B96A483638407D60B16F48008894
:104FE000401C6E49088008468089401C888183A047
:104FF00001F095FB10E787480088874909888842B7
:1050000005D18448408884494988884213D05C4847
:105010003638C08B7F490988884206D158483638CF
:10502000008C7C494988884205D05C480088401C37
:105030005A490880F0E6FFF708FD4FF6FF718842F5
:105040000CD056480088401C544908800846C08946
:10505000401CC88171A001F062FBDDE6484836388B
:10506000C07D062800D100E245483638C07D1128B1
:1050700000D162E042483638C07D01280CD0474854
:105080000088401C454908800846008A401C088268
:1050900067A001F044FBBFE64048808A401C81B213
:1050A0003E4881823648363890F8220008280ED0D3
:1050B0003A48408A401C394948820846008B401CC7
:1050C00081B23648018361A001F029FBA4E60021EA
:1050D0002B48363880F82210808C4FF6F7718842C2
:1050E00008DB27483638808C093081B224483638AE
:1050F000818407E022483638808C083081B220480D
:105100003638818400BF1E483638418BC183818B7D
:10511000018400BF00BF3F480188194836384183E9
:105120003C48418816483638818300BF1B48C08AF6
:10513000401C81B21948C182F4E3164800881C382B
:10514000144908800E480C380E4908602A38008D32
:1051500060B1FFF7B0FC4FF6FF71884206D00F48F0
:10516000808D401C0D49888508467BE083E0000067
:10517000C8190020F8000020E4000020F4000020FE
:105180008A010020D4000020D8000020E000002088
:10519000EE000020DC000020DE0000207C1A002051
:1051A000E800002069703A20696E76616C696420BD
:1051B00076657273696F6E206F72206865616465D1
:1051C00072206C656E6774682E00000069703A206A
:1051D0007061636B65742073686F7274657220749C
:1051E00068616E207265706F7274656420696E20EC
:1051F0004950206865616465722E000069703A202C
:10520000667261676D656E742064726F707065643C
:105210002E000000C2000020CA7E000869703A20FB
:1052200062616420636865636B73756D2E000000B6
:1052300069703A206E6569746865722074637020C5
:105240006E6F722069636D702E00000069636D706F
:105250003A206E6F742069636D70206563686F2EED
:1052600000000000408E401C81B2F6484186F6A046
:1052700001F055FAD0E5F9480068D8B1F748006860
:10528000C188F748408C814205D1F4480168F44850
:105290001A3081420ED00020F04909688880F04819
:1052A000408CEE490968C880EC480168EC48D0F8A9
:1052B0001A000860E9480068C08850B9E848408C86
:1052C000E6490968C880E5480168E548D0F81A0051
:1052D0000860E248006848B1E24800780002E1490D
:1052E000098840EA2120DD4909688880DE48DB49D9
:1052F000086046E0D94800688088E0B3D848808CD0
:10530000D64909688988884236D1D4480068C0885F
:1053100030B1D348408CD1490968C98888422BD123
:10532000CE4800680088D1490988884206D1CB4818
:1053300000684088CD49498888421BD0C74800682A
:105340000088CB490988884206D1C4480068408853
:10535000C749498888420DD0C148408BBF49096878
:105360000988884208D1BE48808BBC4909684988B1
:10537000884201D10FE0FFE7B84800681030B74914
:105380000860B6480168B848A0308142B2D3B9A0DD
:1053900001F0C5F940E50020BF4908600220BF497F
:1053A0000870AF482A30BE490860BE490860002036
:1053B000BD49088001F0E9FE00BFBB48008800B984
:1053C0002AE5B94800881C30B8490880084600889A
:1053D0000112A3480174B5480178A14841749F485F
:1053E0000068017A9E4881751121C175AE48008818
:1053F0000830C0F30721AC480078083041EA0020AB
:1054000081B29748C1840021018594480068818851
:105410009348418491480068C1889148818400BFC5
:10542000A34801888E484183A14841888C488183E4
:1054300000BF00BF8948006801888948C183874848
:10544000006841888648018400BF3630944908606E
:10545000FFF731FBC04381B281480185008D18B947
:105460004FF6FF717E480185F4E37648808B401C3F
:1054700081B274488183FFF719FB4FF6FF718842B0
:105480000ED07048408B401C6E4948830846008C03
:10549000401C81B26B48018486A001F040F9BBE456
:1054A000894C17E0607EA0B16D48808CA18888424D
:1054B0000FD16B48408CE18888420AD16848408B04
:1054C0002188884205D16648808B6188884200D156
:1054D00012E2D8347D488442E4D9614890F82F0024
:1054E00000F03F00022800D021E05D48808C784920
:1054F00008800020774908700EE0774875490978E0
:1055000030F8110072490988884200D1E8E07148FA
:105510000078401C6F4908706E4800780A28ECDB60
:105520004848408D401C81B24648418500BF4C48E8
:1055300090F82F0000F0040000B16DE44148808C29
:10554000401C81B23F4881841421454880F82F10C7
:105550002820564908805021414880F82E1090F8A4
:1055600029005C4908703E4890F82D1080F82910F9
:10557000584801783A4880F82D1090F8280055498D
:105580000870374890F82C1080F82810514801789E
:10559000334880F82C1090F827004E4908703048A6
:1055A00090F82B1080F827104A4801782C4880F892
:1055B0002B1090F8260047490870294890F82A10C7
:1055C00080F8261043480178254880F82A1090F882
:1055D0002D00401CC1B2224880F82D10B1B990F8BE
:1055E0002C00401CC1B21E4880F82C1071B990F8F4
:1055F0002B00401CC1B21A4880F82B1031B990F82A
:105600002A00401CC1B2164880F82A101448408C69
:105610002F4908801248818C41842D480188104808
:10562000818400BF418BC183818B018400BF00BF97
:105630001F4801880A4841831D48418808488183E2
:1056400000BFF6E37C1A00207564703A2062616442
:1056500020636865636B73756D2E0000E8000020A1
:1056600054010020C0000020DC190020CA7E000880
:10567000C67E00087564703A206E6F206D61746399
:1056800068696E6720636F6E6E656374696F6E2004
:10569000666F756E64000000E4000020E0000020EA
:1056A000D4000020D8000020DE000020DC00002014
:1056B000C20000207463703A2062616420636865F0
:1056C000636B73756D2E000058110020F0180020D8
:1056D000FA000020F8000020C8190020EBE0EFE0FD
:1056E00000240020FD4908703BE0FC48007800EBF6
:1056F000C00000EB4000FA4901EBC000407E48B911
:10570000F648007800EBC00000EB400001EBC0045D
:105710002BE0D5E2F148007800EBC00000EB400040
:10572000EF4901EBC000407E072815D15CB1EB4882
:10573000007800EBC00000EB400001EBC000807E71
:10574000A17E884208DDE548007800EBC00000EB50
:105750004000E34901EBC004E0480078401CDF4909
:105760000870DE4800780A28BFDB00BF4CB9DD486E
:10577000008D401C81B2DB480185DBA000F0CFFF2B
:105780000AE4E24804600320A07620760020A07599
:105790000420E0750020E076DD48808CA080DC48A5
:1057A000408CE08000BFDA48408B2080D848808B56
:1057B000608000BF01206076D64800782073D5480D
:1057C000417861738178A173C178E17301202082EF
:1057D000CF4890F82910E17290F82810A17290F843
:1057E0002710617290F8260020720120FFF7DBFA83
:1057F000C74890F82E0000F0F00050285ADD002035
:10580000B64908704AE0B54800783630C049085CAF
:10581000C14908700846007800B94AE0BE480078DF
:10582000012805D1AD480078401CAC49087035E02E
:10583000B9480078022820D1A84800783730B44908
:10584000085C042819D1A54800783930095CA348C0
:1058500000783830AE4A105C41EA0020AF49088039
:105860000846008840F6CA71884201DD084601E01A
:10587000AA4800886082A0821BE0984800783730F0
:10588000A349085C00B914E0944800783730A04977
:10589000085C924909780844904908709C4890F83F
:1058A0002E000521C1EB20108C490978B1EB800F47
:1058B000A9DB00BF00BF1021954880F82F1000BF62
:1058C000934890F82F0040F00201914880F82F1083
:1058D000022180F83610042180F837100F2180F85B
:1058E0003810CA2180F839102C208D490880602199
:1058F000874880F82E101BE3844804600020894903
:105900000870834890F82F0000F0040058B1002080
:10591000607685A000F003FF20208249087001F026
:105920005EFCA3E399E37A4890F82E000011800012
:105930006A4908707A4800880978401A143878490A
:105940000880607E00F00F00022806D1704890F8B1
:105950002F0000F03F00122822D071480088002854
:1059600005DC6B4890F82F0000F00300C0B16848D8
:1059700090F82600217A884211D1654890F82710C6
:10598000607A81420BD1624890F82810A07A814257
:1059900005D15F4890F82910E07A814200D0B9E241
:1059A0005B4890F82F0000F01000E8B3208AD8B3CD
:1059B000218A04F10C00FEF7DEFF554890F82A001A
:1059C00063490978884245D1514890F82B006049D5
:1059D000497888423ED14E4890F82C005C4989783D
:1059E000884237D14A4890F82D005949C9788842F1
:1059F00030D15748007820735548417861738178D9
:105A0000A173C178E173E07EE8B9217EA27E891A94
:105A100048B2A17DA0EBE10148B2A17D0144A1758E
:105A2000002803DA414200E014E048B2E17DA0EB37
:105A3000A10148B2E17D0144E175E17DA27D01EB68
:105A4000E201217600BF012036490870207EA07651
:105A500000202082607E00F00F0009287CD2DFE861
:105A600000F07B0525F8F7F6F5F4F3002D480078F3
:105A700000F00100C8B10320607640202949087079
:105A80000020208226480088002808DD084600788B
:105A900040F00200087022480088FFF784F90020D7
:105AA0002C49088001F09BFB60E1DFE21D48007893
:105AB00000F0010088B1164890F82F0000F03F0078
:105AC00012280AD1124890F82E0000F0F000502859
:105AD00078DD0020014908708BE0BCE0F800002070
